:100000000C9434000C9449000C9449000C94490061
:100010000C9449000C9449000C9449000C9449003C
:100020000C9449000C9449000C9449000C9449002C
:100030000C9449000C9449000C9449000C9449001C
:100040000C9449000C9449000C9449000C9449000C
:100050000C9449000C9449000C9449000C944900FC
:100060000C9449000C94490011241FBECFEFD8E036
:10007000DEBFCDBF11E0A0E0B1E0E6EFFDE002C0E1
:1000800005900D92AA33B107D9F70E94D6000C94BF
:10009000F9060C9400009BB19F709BB99BB18295AF
:1000A000807F982B9BB9299A299A299808951F93A4
:1000B000182F289A82958F700E944B00812F0E94E2
:1000C0004B0080E49FE10197F1F71F910895CF93D2
:1000D000DF93EC0102C00E94570089918823D9F771
:1000E000DF91CF9108951F93182F289882958F70D4
:1000F0000E944B00812F0E944B0080E49FE10197FA
:10010000F1F71F910895882319F4862F805802C0B3
:10011000862F80540E947300089584B1836084B94F
:100120008AB1806F8AB980E69AEE0197F1F780E391
:100130000E944B0080E29EE40197F1F780E30E9469
:100140004B0080EE91E00197F1F780E30E944B00B5
:1001500080E20E944B0080E49FE10197F1F788E282
:100160000E9473008FE00E94730008950F931F9305
:10017000CF93DF93C0E0D0E000E00EC0812F0E945B
:100180001903CC0FDD1F8170C80FD11D1F5F163002
:10019000A9F70F5F033011F011E0F0CFCE010E94FC
:1001A000AD03DF91CF911F910F9108952F923F9250
:1001B0004F925F926F927F928F929F92AF92BF9277
:1001C000CF92DF92EF92FF920F931F93DF93CF9323
:1001D000CDB7DEB7E8970FB6F894DEBF0FBECDBF40
:1001E0000E948D0081E00E9473000E9408030E941B
:1001F000B6008DB79EB708970FB6F8949EBF0FBE96
:100200008DBFEDB7FEB731968E01035F1F4FADB7BF
:10021000BEB712961C930E9311974CE0C42ED12CAE
:10022000D382C28230E0E32E31E0F32EF582E48205
:1002300083E091E0978386830E94B8038DB79EB7D1
:1002400008960FB6F8949EBF0FBE8DBF80E060E0A9
:100250000E948300C8010E946700ADB7BEB718971F
:100260000FB6F894BEBF0FBEADBFEDB7FEB7319667
:1002700012961C930E931197D382C282F582E48268
:100280008FE091E0978386830E94B8038DB79EB775
:1002900008960FB6F8949EBF0FBE8DBF81E060E058
:1002A0000E948300C8010E94670080E197E220E974
:1002B00031E0F9013197F1F70197D9F781E00E9418
:1002C00073000E94A80360E270E00E9430036C019A
:1002D0000E94A80360E270E00E9430035C010E946B
:1002E000A80360E270E00E9430034C01ADB7BEB7D6
:1002F0001C970FB6F894BEBF0FBEADBFEDB7FEB7EB
:1003000031968E01075E1F4F12961C930E93119724
:100310008FE090E0938382838BE191E095838483E7
:10032000D782C682B186A086938682860E94B80351
:100330008DB79EB70C960FB6F8949EBF0FBE8DBFBB
:10034000C8010E94670081E060E00E948300ADB7B1
:10035000BEB718970FB6F894BEBF0FBEADBFEDB7CE
:10036000FEB731968E010F5F1F4F12961C930E93AE
:10037000119782E090E09383828380E091E09583FF
:10038000848384E291E0978386830E94B8038DB7CB
:100390009EB708960FB6F8949EBF0FBE8DBFC801DA
:1003A0000E94670081E06DE00E948300EE24FF243C
:1003B00020E9222E21E0322E83E00E941903869547
:1003C00086958695082F10E0ADB7BEB718970FB683
:1003D000F894BEBF0FBEADBFEDB7FEB7319683E058
:1003E00090E08C0F9D1F12969C938E931197A5E021
:1003F000B0E0B383A28386E291E095838483178380
:1004000006830E94B803ADB7BEB718960FB6F8942E
:10041000BEBF0FBEADBF81E06CE00E948300CE0185
:1004200003960E94670080E00E941903873928F133
:1004300080E00E941903803A00F5B2E0EB16F10467
:10044000E4F081E06E2D0E9483008AE291E00E9438
:1004500067008DEF9FEFE80EF91E81E06E2D0E9480
:10046000830084E291E00E94670080ED97E0F10153
:100470003197F1F70197D9F782C080E00E94190304
:1004800080E00E9419038A3000F596E0E916F10435
:10049000E4F481E06E2D0E9483008AE291E00E94E4
:1004A0006700A3E0B0E0EA0EFB1E81E06E2D0E9423
:1004B000830084E291E00E94670080ED97E0F10103
:1004C0003197F1F70197D9F75AC080E00E941903DC
:1004D000893C08F454C080E00E941903823D08F072
:1004E0004EC08DB79EB708970FB6F8949EBF0FBE4B
:1004F0008DBFEDB7FEB7319688E090E08C0F9D1F61
:10050000ADB7BEB712969C938E931197A5E0B0E05D
:10051000B383A2838CE291E095838483178306835F
:100520000E94B803ADB7BEB718960FB6F894BEBF19
:100530000FBEADBF6E2D6F5F81E00E948300CE01C4
:1005400008960E946700E114F10411F428010BC021
:10055000B3E0EB16F10419F418AF0FAB04C086E05A
:10056000E816F10421F0872D962D9C01890180ED7C
:1005700097E0F1013197F1F70197D9F704C0872D82
:10058000962D9C018901C414D50469F4AFA9B8ADB6
:10059000AA16BB0611F0260106C08016910631F09E
:1005A0002601B8AEAFAA702E612E06CF8DB79EB7CA
:1005B00008970FB6F8949EBF0FBE8DBFEDB7FEB77C
:1005C00031968E01085D1F4FADB7BEB712961C93D2
:1005D0000E9311978FE090E09383828380E091E007
:1005E000958384838FE291E0978386830E94B8038A
:1005F0008DB79EB708960FB6F8949EBF0FBE8DBFFD
:1006000080E06AE00E948300C8010E946700FFCF7B
:10061000ECE7F0E080818064808380818F77808345
:10062000808180628083EAE7F0E080818768808350
:10063000089590917C00907F90937C0090917C0035
:100640008F70892B80937C0080917A0080648093E6
:100650007A0080917A0086FDFCCF80917900089520
:1006600097FB092E07260AD077FD04D00CD006D0C0
:1006700000201AF4709561957F4F0895F6F79095D4
:1006800081959F4F0895AA1BBB1B51E107C0AA1F6C
:10069000BB1FA617B70710F0A61BB70B881F991F23
:1006A0005A95A9F780959095BC01CD010895A0E0D9
:1006B000B0E0EDE5F3E00C94A806EC01A880B98069
:1006C000CA80DB80A114B104C104D10441F484E2E6
:1006D000A82E89EDB82E8BE5C82E87E0D82EC6014E
:1006E000B5012DE133EF41E050E00E94850627EA95
:1006F00031E440E050E00E9466067B018C01C601B7
:10070000B5012DE133EF41E050E00E948506CA01BA
:10071000B9012CEE34EF4FEF5FEF0E9466066E0DCD
:100720007F1D801F911F97FF04C061507040804063
:100730009048688379838A839B839B013F77C901B3
:10074000CDB7DEB7EAE00C94C4060E9457030895C3
:1007500086E391E00E9457030895A0E0B0E0809303
:10076000360190933701A0933801B0933901089571
:10077000AEE0B0E0EEEBF3E00C94AE060D891E891E
:100780008F89988D97FF02C080E090E801979E8343
:100790008D831A83098386E08C839E01255E3F4FFB
:1007A000CE010196698D7A8DA9010E94E9034D81E0
:1007B0005E8157FD0AC02F813885421753070CF41C
:1007C0009A01020F131FF80110822E96E4E00C9498
:1007D000CA06ABE0B0E0EFEEF3E00C94A0063C01FB
:1007E0002B015A01FC0117821682838181FD03C00F
:1007F0006FEF7FEFC6C19AE0892E1E010894211C7D
:10080000311CF3012381F20123FD859123FF8191A6
:100810002F01882309F4B2C1853239F423FD859173
:1008200023FF81912F01853229F490E0B3010E94CA
:10083000DC05E7CF982FFF24EE249924FFE1FF1574
:10084000D0F09B3269F09C3228F4903259F0933208
:1008500091F40EC09D3249F0903369F441E024C018
:1008600052E0F52A84E0F82A28C098E0F92A25C049
:10087000E0E1FE2A22C0F7FC29C0892F80538A308C
:1008800070F4F6FE05C0989C902C1124980E15C0AB
:10089000E89CE02C1124E80EF0E2FF2A0EC09E3204
:1008A00029F4F6FC6BC140E4F42A07C09C3619F425
:1008B00050E8F52A02C0983649F4F20123FD9591DB
:1008C00023FF91912F01992309F0B8CF892F8554E7
:1008D000833018F08052833038F444E050E0A40EA6
:1008E000B51E5FE359830FC0933631F0933779F02B
:1008F000933509F056C020C0F5018081898342E01C
:1009000050E0A40EB51E610101E010E012C0F50137
:10091000C080D180F6FC03C06FEF7FEF02C0692D6D
:1009200070E042E050E0A40EB51EC6010E94D10561
:100930008C015FE7F52214C0F501C080D180F6FC80
:1009400003C06FEF7FEF02C0692D70E042E050E01E
:10095000A40EB51EC6010E94C6058C0150E8F52AFA
:10096000F3FE07C01AC080E290E0B3010E94DC05EC
:10097000EA948E2D90E008171907A8F30EC0F6012F
:10098000F7FC8591F7FE81916F0190E0B3010E9421
:10099000DC05E110EA94015010400115110579F7CA
:1009A000EAC0943611F0993669F5F7FE08C0F501F2
:1009B000208131814281538184E090E00AC0F501B9
:1009C000808191819C01442737FD4095542F82E01E
:1009D00090E0A80EB91E9FE6F92257FF09C0509576
:1009E0004095309521953F4F4F4F5F4FE0E8FE2AED
:1009F000CA01B901A1012AE030E00E940806D82E00
:100A0000D21840C0953729F41F2D1F7E2AE030E010
:100A10001DC01F2D197F9F3661F0903720F4983547
:100A200009F0ACC00FC0903739F0983709F0A6C074
:100A300004C028E030E00AC0106114FD146020E119
:100A400030E004C014FD166020E132E017FF08C05A
:100A5000F501608171818281938144E050E008C09A
:100A6000F50180819181BC0180E090E042E050E09E
:100A7000A40EB51EA1010E940806D82ED2188FE739
:100A8000F82EF122F6FE0BC05EEFF522D91438F4F1
:100A9000F4FE07C0F2FC05C08FEEF82202C01D2D47
:100AA00001C0192DF4FE0DC0FE01ED0DF11D808178
:100AB000803319F499EEF92208C01F5FF2FE05C0D9
:100AC00003C08F2D867809F01F5F0F2DF3FC14C033
:100AD000F0FE0FC01E1510F09D2C0BC09D2C9E0C1F
:100AE000911A1E2D06C080E290E0B3010E94DC0541
:100AF0001F5F1E15C0F304C01E1510F4E11A01C0DB
:100B0000EE2404FF0FC080E390E0B3010E94DC05F7
:100B100002FF1DC001FD03C088E790E00EC088E51C
:100B200090E00BC0802F867891F001FF02C08BE22D
:100B300001C080E2F7FC8DE290E0B3010E94DC0589
:100B400006C080E390E0B3010E94DC059A94D914BA
:100B5000C0F3DA94F101ED0DF11D808190E0B30155
:100B60000E94DC05DD20A9F706C080E290E0B30119
:100B70000E94DC05EA94EE20C1F743CEF3016681C2
:100B80007781CB012B96E2E10C94BC06FC01059029
:100B9000615070400110D8F7809590958E0F9F1F7F
:100BA0000895FC016150704001900110D8F78095C4
:100BB00090958E0F9F1F08950F931F93CF93DF93F0
:100BC0008C01EB018B8181FF1BC082FF0DC02E8148
:100BD0003F818C819D812817390764F4E881F98170
:100BE0000193F983E88306C0E885F985802F09958C
:100BF000892B31F48E819F8101969F838E8302C061
:100C00000FEF1FEFC801DF91CF911F910F91089552
:100C1000FA01AA27283051F1203181F1E8946F932D
:100C20006E7F6E5F7F4F8F4F9F4FAF4FB1E03ED0D3
:100C3000B4E03CD0670F781F891F9A1FA11D680F71
:100C4000791F8A1F911DA11D6A0F711D811D911DA4
:100C5000A11D20D009F468943F912AE0269F112419
:100C60003019305D3193DEF6CF010895462F47707D
:100C7000405D4193B3E00FD0C9F7F6CF462F4F70D8
:100C8000405D4A3318F0495D31FD4052419302D036
:100C9000A9F7EACFB4E0A6959795879577956795DC
:100CA000BA95C9F700976105710508959B01AC01DC
:100CB0000A2E06945795479537952795BA95C9F703
:100CC000620F731F841F951FA01D0895629FD0019E
:100CD000739FF001829FE00DF11D649FE00DF11DF7
:100CE000929FF00D839FF00D749FF00D659FF00DA6
:100CF0009927729FB00DE11DF91F639FB00DE11D93
:100D0000F91FBD01CF011124089597FB092E052677
:100D10000ED057FD04D04BD00AD0001C38F45095AB
:100D20004095309521953F4F4F4F5F4F0895F6F70F
:100D300090958095709561957F4F8F4F9F4F089547
:100D40002F923F924F925F926F927F928F929F92DB
:100D5000AF92BF92CF92DF92EF92FF920F931F93C9
:100D6000CF93DF93CDB7DEB7CA1BDB0B0FB6F8947A
:100D7000DEBF0FBECDBF09942A88398848885F84BA
:100D80006E847D848C849B84AA84B984C884DF802B
:100D9000EE80FD800C811B81AA81B981CE0FD11D0F
:100DA0000FB6F894DEBF0FBECDBFED010895A1E2EE
:100DB0001A2EAA1BBB1BFD010DC0AA1FBB1FEE1FD5
:100DC000FF1FA217B307E407F50720F0A21BB30B20
:100DD000E40BF50B661F771F881F991F1A9469F79C
:100DE00060957095809590959B01AC01BD01CF01F8
:060DF0000895F894FFCF06
:100DF6002573004545313039204C61622035004A63
:100E060061736F6E204A6F736869002564202564DC
:100E1600202564003E00253464002000256400552A
:0A0E26006E6C6F636B0001000000AA
:00000001FF
